{
	"contracts/ExampleWrapAround.sol": {
		"ExampleWrapAround": {
			"abi": [
				{
					"inputs": [],
					"name": "decrementMyUInt",
					"outputs": [],
					"stateMutability": "nonpayable",
					"type": "function"
				},
				{
					"inputs": [],
					"name": "incrementUInt8",
					"outputs": [],
					"stateMutability": "nonpayable",
					"type": "function"
				},
				{
					"inputs": [],
					"name": "myUInt",
					"outputs": [
						{
							"internalType": "uint256",
							"name": "",
							"type": "uint256"
						}
					],
					"stateMutability": "view",
					"type": "function"
				},
				{
					"inputs": [],
					"name": "myUInt8",
					"outputs": [
						{
							"internalType": "uint8",
							"name": "",
							"type": "uint8"
						}
					],
					"stateMutability": "view",
					"type": "function"
				},
				{
					"inputs": [
						{
							"internalType": "uint256",
							"name": "_myUInt",
							"type": "uint256"
						}
					],
					"name": "setMyUInt",
					"outputs": [],
					"stateMutability": "nonpayable",
					"type": "function"
				}
			],
			"devdoc": {
				"kind": "dev",
				"methods": {},
				"version": 1
			},
			"evm": {
				"assembly": "    /* \"contracts/ExampleWrapAround.sol\":60:424  contract ExampleWrapAround {... */\n  mstore(0x40, 0x80)\n  callvalue\n  dup1\n  iszero\n  tag_1\n  jumpi\n  0x00\n  dup1\n  revert\ntag_1:\n  pop\n  dataSize(sub_0)\n  dup1\n  dataOffset(sub_0)\n  0x00\n  codecopy\n  0x00\n  return\nstop\n\nsub_0: assembly {\n        /* \"contracts/ExampleWrapAround.sol\":60:424  contract ExampleWrapAround {... */\n      mstore(0x40, 0x80)\n      callvalue\n      dup1\n      iszero\n      tag_1\n      jumpi\n      0x00\n      dup1\n      revert\n    tag_1:\n      pop\n      jumpi(tag_2, lt(calldatasize, 0x04))\n      shr(0xe0, calldataload(0x00))\n      dup1\n      0x2ad9db92\n      eq\n      tag_3\n      jumpi\n      dup1\n      0x3c925533\n      eq\n      tag_4\n      jumpi\n      dup1\n      0x6fe6036d\n      eq\n      tag_5\n      jumpi\n      dup1\n      0x96b57def\n      eq\n      tag_6\n      jumpi\n      dup1\n      0xe7b167fc\n      eq\n      tag_7\n      jumpi\n    tag_2:\n      0x00\n      dup1\n      revert\n        /* \"contracts/ExampleWrapAround.sol\":360:421  function incrementUInt8() public {... */\n    tag_3:\n      tag_8\n      tag_9\n      jump\t// in\n    tag_8:\n      stop\n        /* \"contracts/ExampleWrapAround.sol\":143:163  uint8 public myUInt8 */\n    tag_4:\n      tag_10\n      tag_11\n      jump\t// in\n    tag_10:\n      mload(0x40)\n      tag_12\n      swap2\n      swap1\n      tag_13\n      jump\t// in\n    tag_12:\n      mload(0x40)\n      dup1\n      swap2\n      sub\n      swap1\n      return\n        /* \"contracts/ExampleWrapAround.sol\":255:352  function decrementMyUInt() public {... */\n    tag_5:\n      tag_14\n      tag_15\n      jump\t// in\n    tag_14:\n      stop\n        /* \"contracts/ExampleWrapAround.sol\":94:115  uint256 public myUInt */\n    tag_6:\n      tag_16\n      tag_17\n      jump\t// in\n    tag_16:\n      mload(0x40)\n      tag_18\n      swap2\n      swap1\n      tag_19\n      jump\t// in\n    tag_18:\n      mload(0x40)\n      dup1\n      swap2\n      sub\n      swap1\n      return\n        /* \"contracts/ExampleWrapAround.sol\":172:247  function setMyUInt(uint _myUInt) public {... */\n    tag_7:\n      tag_20\n      0x04\n      dup1\n      calldatasize\n      sub\n      dup2\n      add\n      swap1\n      tag_21\n      swap2\n      swap1\n      tag_22\n      jump\t// in\n    tag_21:\n      tag_23\n      jump\t// in\n    tag_20:\n      stop\n        /* \"contracts/ExampleWrapAround.sol\":360:421  function incrementUInt8() public {... */\n    tag_9:\n        /* \"contracts/ExampleWrapAround.sol\":404:411  myUInt8 */\n      0x01\n      0x00\n        /* \"contracts/ExampleWrapAround.sol\":404:413  myUInt8++ */\n      dup2\n      dup2\n      swap1\n      sload\n      swap1\n      0x0100\n      exp\n      swap1\n      div\n      0xff\n      and\n      dup1\n      swap3\n      swap2\n      swap1\n      tag_25\n      swap1\n      tag_26\n      jump\t// in\n    tag_25:\n      swap2\n      swap1\n      0x0100\n      exp\n      dup2\n      sload\n      dup2\n      0xff\n      mul\n      not\n      and\n      swap1\n      dup4\n      0xff\n      and\n      mul\n      or\n      swap1\n      sstore\n      pop\n      pop\n        /* \"contracts/ExampleWrapAround.sol\":360:421  function incrementUInt8() public {... */\n      jump\t// out\n        /* \"contracts/ExampleWrapAround.sol\":143:163  uint8 public myUInt8 */\n    tag_11:\n      0x01\n      0x00\n      swap1\n      sload\n      swap1\n      0x0100\n      exp\n      swap1\n      div\n      0xff\n      and\n      dup2\n      jump\t// out\n        /* \"contracts/ExampleWrapAround.sol\":255:352  function decrementMyUInt() public {... */\n    tag_15:\n        /* \"contracts/ExampleWrapAround.sol\":325:331  myUInt */\n      0x00\n      dup1\n        /* \"contracts/ExampleWrapAround.sol\":325:333  myUInt-- */\n      dup2\n      sload\n      dup1\n      swap3\n      swap2\n      swap1\n      0x01\n      swap1\n      sub\n      swap2\n      swap1\n      pop\n      sstore\n      pop\n        /* \"contracts/ExampleWrapAround.sol\":255:352  function decrementMyUInt() public {... */\n      jump\t// out\n        /* \"contracts/ExampleWrapAround.sol\":94:115  uint256 public myUInt */\n    tag_17:\n      sload(0x00)\n      dup2\n      jump\t// out\n        /* \"contracts/ExampleWrapAround.sol\":172:247  function setMyUInt(uint _myUInt) public {... */\n    tag_23:\n        /* \"contracts/ExampleWrapAround.sol\":232:239  _myUInt */\n      dup1\n        /* \"contracts/ExampleWrapAround.sol\":223:229  myUInt */\n      0x00\n        /* \"contracts/ExampleWrapAround.sol\":223:239  myUInt = _myUInt */\n      dup2\n      swap1\n      sstore\n      pop\n        /* \"contracts/ExampleWrapAround.sol\":172:247  function setMyUInt(uint _myUInt) public {... */\n      pop\n      jump\t// out\n        /* \"#utility.yul\":7:93   */\n    tag_29:\n        /* \"#utility.yul\":42:49   */\n      0x00\n        /* \"#utility.yul\":82:86   */\n      0xff\n        /* \"#utility.yul\":75:80   */\n      dup3\n        /* \"#utility.yul\":71:87   */\n      and\n        /* \"#utility.yul\":60:87   */\n      swap1\n      pop\n        /* \"#utility.yul\":7:93   */\n      swap2\n      swap1\n      pop\n      jump\t// out\n        /* \"#utility.yul\":99:211   */\n    tag_30:\n        /* \"#utility.yul\":182:204   */\n      tag_42\n        /* \"#utility.yul\":198:203   */\n      dup2\n        /* \"#utility.yul\":182:204   */\n      tag_29\n      jump\t// in\n    tag_42:\n        /* \"#utility.yul\":177:180   */\n      dup3\n        /* \"#utility.yul\":170:205   */\n      mstore\n        /* \"#utility.yul\":99:211   */\n      pop\n      pop\n      jump\t// out\n        /* \"#utility.yul\":217:431   */\n    tag_13:\n        /* \"#utility.yul\":306:310   */\n      0x00\n        /* \"#utility.yul\":344:346   */\n      0x20\n        /* \"#utility.yul\":333:342   */\n      dup3\n        /* \"#utility.yul\":329:347   */\n      add\n        /* \"#utility.yul\":321:347   */\n      swap1\n      pop\n        /* \"#utility.yul\":357:424   */\n      tag_44\n        /* \"#utility.yul\":421:422   */\n      0x00\n        /* \"#utility.yul\":410:419   */\n      dup4\n        /* \"#utility.yul\":406:423   */\n      add\n        /* \"#utility.yul\":397:403   */\n      dup5\n        /* \"#utility.yul\":357:424   */\n      tag_30\n      jump\t// in\n    tag_44:\n        /* \"#utility.yul\":217:431   */\n      swap3\n      swap2\n      pop\n      pop\n      jump\t// out\n        /* \"#utility.yul\":437:514   */\n    tag_31:\n        /* \"#utility.yul\":474:481   */\n      0x00\n        /* \"#utility.yul\":503:508   */\n      dup2\n        /* \"#utility.yul\":492:508   */\n      swap1\n      pop\n        /* \"#utility.yul\":437:514   */\n      swap2\n      swap1\n      pop\n      jump\t// out\n        /* \"#utility.yul\":520:638   */\n    tag_32:\n        /* \"#utility.yul\":607:631   */\n      tag_47\n        /* \"#utility.yul\":625:630   */\n      dup2\n        /* \"#utility.yul\":607:631   */\n      tag_31\n      jump\t// in\n    tag_47:\n        /* \"#utility.yul\":602:605   */\n      dup3\n        /* \"#utility.yul\":595:632   */\n      mstore\n        /* \"#utility.yul\":520:638   */\n      pop\n      pop\n      jump\t// out\n        /* \"#utility.yul\":644:866   */\n    tag_19:\n        /* \"#utility.yul\":737:741   */\n      0x00\n        /* \"#utility.yul\":775:777   */\n      0x20\n        /* \"#utility.yul\":764:773   */\n      dup3\n        /* \"#utility.yul\":760:778   */\n      add\n        /* \"#utility.yul\":752:778   */\n      swap1\n      pop\n        /* \"#utility.yul\":788:859   */\n      tag_49\n        /* \"#utility.yul\":856:857   */\n      0x00\n        /* \"#utility.yul\":845:854   */\n      dup4\n        /* \"#utility.yul\":841:858   */\n      add\n        /* \"#utility.yul\":832:838   */\n      dup5\n        /* \"#utility.yul\":788:859   */\n      tag_32\n      jump\t// in\n    tag_49:\n        /* \"#utility.yul\":644:866   */\n      swap3\n      swap2\n      pop\n      pop\n      jump\t// out\n        /* \"#utility.yul\":953:1070   */\n    tag_34:\n        /* \"#utility.yul\":1062:1063   */\n      0x00\n        /* \"#utility.yul\":1059:1060   */\n      dup1\n        /* \"#utility.yul\":1052:1064   */\n      revert\n        /* \"#utility.yul\":1199:1321   */\n    tag_36:\n        /* \"#utility.yul\":1272:1296   */\n      tag_54\n        /* \"#utility.yul\":1290:1295   */\n      dup2\n        /* \"#utility.yul\":1272:1296   */\n      tag_31\n      jump\t// in\n    tag_54:\n        /* \"#utility.yul\":1265:1270   */\n      dup2\n        /* \"#utility.yul\":1262:1297   */\n      eq\n        /* \"#utility.yul\":1252:1315   */\n      tag_55\n      jumpi\n        /* \"#utility.yul\":1311:1312   */\n      0x00\n        /* \"#utility.yul\":1308:1309   */\n      dup1\n        /* \"#utility.yul\":1301:1313   */\n      revert\n        /* \"#utility.yul\":1252:1315   */\n    tag_55:\n        /* \"#utility.yul\":1199:1321   */\n      pop\n      jump\t// out\n        /* \"#utility.yul\":1327:1466   */\n    tag_37:\n        /* \"#utility.yul\":1373:1378   */\n      0x00\n        /* \"#utility.yul\":1411:1417   */\n      dup2\n        /* \"#utility.yul\":1398:1418   */\n      calldataload\n        /* \"#utility.yul\":1389:1418   */\n      swap1\n      pop\n        /* \"#utility.yul\":1427:1460   */\n      tag_57\n        /* \"#utility.yul\":1454:1459   */\n      dup2\n        /* \"#utility.yul\":1427:1460   */\n      tag_36\n      jump\t// in\n    tag_57:\n        /* \"#utility.yul\":1327:1466   */\n      swap3\n      swap2\n      pop\n      pop\n      jump\t// out\n        /* \"#utility.yul\":1472:1801   */\n    tag_22:\n        /* \"#utility.yul\":1531:1537   */\n      0x00\n        /* \"#utility.yul\":1580:1582   */\n      0x20\n        /* \"#utility.yul\":1568:1577   */\n      dup3\n        /* \"#utility.yul\":1559:1566   */\n      dup5\n        /* \"#utility.yul\":1555:1578   */\n      sub\n        /* \"#utility.yul\":1551:1583   */\n      slt\n        /* \"#utility.yul\":1548:1667   */\n      iszero\n      tag_59\n      jumpi\n        /* \"#utility.yul\":1586:1665   */\n      tag_60\n      tag_34\n      jump\t// in\n    tag_60:\n        /* \"#utility.yul\":1548:1667   */\n    tag_59:\n        /* \"#utility.yul\":1706:1707   */\n      0x00\n        /* \"#utility.yul\":1731:1784   */\n      tag_61\n        /* \"#utility.yul\":1776:1783   */\n      dup5\n        /* \"#utility.yul\":1767:1773   */\n      dup3\n        /* \"#utility.yul\":1756:1765   */\n      dup6\n        /* \"#utility.yul\":1752:1774   */\n      add\n        /* \"#utility.yul\":1731:1784   */\n      tag_37\n      jump\t// in\n    tag_61:\n        /* \"#utility.yul\":1721:1784   */\n      swap2\n      pop\n        /* \"#utility.yul\":1677:1794   */\n      pop\n        /* \"#utility.yul\":1472:1801   */\n      swap3\n      swap2\n      pop\n      pop\n      jump\t// out\n        /* \"#utility.yul\":1807:1987   */\n    tag_38:\n        /* \"#utility.yul\":1855:1932   */\n      0x4e487b7100000000000000000000000000000000000000000000000000000000\n        /* \"#utility.yul\":1852:1853   */\n      0x00\n        /* \"#utility.yul\":1845:1933   */\n      mstore\n        /* \"#utility.yul\":1952:1956   */\n      0x11\n        /* \"#utility.yul\":1949:1950   */\n      0x04\n        /* \"#utility.yul\":1942:1957   */\n      mstore\n        /* \"#utility.yul\":1976:1980   */\n      0x24\n        /* \"#utility.yul\":1973:1974   */\n      0x00\n        /* \"#utility.yul\":1966:1981   */\n      revert\n        /* \"#utility.yul\":1993:2160   */\n    tag_26:\n        /* \"#utility.yul\":2030:2033   */\n      0x00\n        /* \"#utility.yul\":2053:2075   */\n      tag_64\n        /* \"#utility.yul\":2069:2074   */\n      dup3\n        /* \"#utility.yul\":2053:2075   */\n      tag_29\n      jump\t// in\n    tag_64:\n        /* \"#utility.yul\":2044:2075   */\n      swap2\n      pop\n        /* \"#utility.yul\":2097:2101   */\n      0xff\n        /* \"#utility.yul\":2090:2095   */\n      dup3\n        /* \"#utility.yul\":2087:2102   */\n      sub\n        /* \"#utility.yul\":2084:2125   */\n      tag_65\n      jumpi\n        /* \"#utility.yul\":2105:2123   */\n      tag_66\n      tag_38\n      jump\t// in\n    tag_66:\n        /* \"#utility.yul\":2084:2125   */\n    tag_65:\n        /* \"#utility.yul\":2152:2153   */\n      0x01\n        /* \"#utility.yul\":2145:2150   */\n      dup3\n        /* \"#utility.yul\":2141:2154   */\n      add\n        /* \"#utility.yul\":2134:2154   */\n      swap1\n      pop\n        /* \"#utility.yul\":1993:2160   */\n      swap2\n      swap1\n      pop\n      jump\t// out\n\n    auxdata: 0xa26469706673582212202a4acf5bebb16af5b05b1b593bfb21ae7ac78c131f615eb040704d86fcee57cf64736f6c634300080f0033\n}\n",
				"bytecode": {
					"linkReferences": {},
					"object": "608060405234801561001057600080fd5b50610290806100206000396000f3fe608060405234801561001057600080fd5b50600436106100575760003560e01c80632ad9db921461005c5780633c925533146100665780636fe6036d1461008457806396b57def1461008e578063e7b167fc146100ac575b600080fd5b6100646100c8565b005b61006e610102565b60405161007b9190610155565b60405180910390f35b61008c610115565b005b610096610129565b6040516100a39190610189565b60405180910390f35b6100c660048036038101906100c191906101d5565b61012f565b005b6001600081819054906101000a900460ff16809291906100e790610231565b91906101000a81548160ff021916908360ff16021790555050565b600160009054906101000a900460ff1681565b600080815480929190600190039190505550565b60005481565b8060008190555050565b600060ff82169050919050565b61014f81610139565b82525050565b600060208201905061016a6000830184610146565b92915050565b6000819050919050565b61018381610170565b82525050565b600060208201905061019e600083018461017a565b92915050565b600080fd5b6101b281610170565b81146101bd57600080fd5b50565b6000813590506101cf816101a9565b92915050565b6000602082840312156101eb576101ea6101a4565b5b60006101f9848285016101c0565b91505092915050565b7f4e487b7100000000000000000000000000000000000000000000000000000000600052601160045260246000fd5b600061023c82610139565b915060ff820361024f5761024e610202565b5b60018201905091905056fea26469706673582212202a4acf5bebb16af5b05b1b593bfb21ae7ac78c131f615eb040704d86fcee57cf64736f6c634300080f0033",
					"opcodes": "PUSH1 0x80 PUSH1 0x40 MSTORE CALLVALUE DUP1 ISZERO PUSH2 0x10 JUMPI PUSH1 0x0 DUP1 REVERT JUMPDEST POP PUSH2 0x290 DUP1 PUSH2 0x20 PUSH1 0x0 CODECOPY PUSH1 0x0 RETURN INVALID PUSH1 0x80 PUSH1 0x40 MSTORE CALLVALUE DUP1 ISZERO PUSH2 0x10 JUMPI PUSH1 0x0 DUP1 REVERT JUMPDEST POP PUSH1 0x4 CALLDATASIZE LT PUSH2 0x57 JUMPI PUSH1 0x0 CALLDATALOAD PUSH1 0xE0 SHR DUP1 PUSH4 0x2AD9DB92 EQ PUSH2 0x5C JUMPI DUP1 PUSH4 0x3C925533 EQ PUSH2 0x66 JUMPI DUP1 PUSH4 0x6FE6036D EQ PUSH2 0x84 JUMPI DUP1 PUSH4 0x96B57DEF EQ PUSH2 0x8E JUMPI DUP1 PUSH4 0xE7B167FC EQ PUSH2 0xAC JUMPI JUMPDEST PUSH1 0x0 DUP1 REVERT JUMPDEST PUSH2 0x64 PUSH2 0xC8 JUMP JUMPDEST STOP JUMPDEST PUSH2 0x6E PUSH2 0x102 JUMP JUMPDEST PUSH1 0x40 MLOAD PUSH2 0x7B SWAP2 SWAP1 PUSH2 0x155 JUMP JUMPDEST PUSH1 0x40 MLOAD DUP1 SWAP2 SUB SWAP1 RETURN JUMPDEST PUSH2 0x8C PUSH2 0x115 JUMP JUMPDEST STOP JUMPDEST PUSH2 0x96 PUSH2 0x129 JUMP JUMPDEST PUSH1 0x40 MLOAD PUSH2 0xA3 SWAP2 SWAP1 PUSH2 0x189 JUMP JUMPDEST PUSH1 0x40 MLOAD DUP1 SWAP2 SUB SWAP1 RETURN JUMPDEST PUSH2 0xC6 PUSH1 0x4 DUP1 CALLDATASIZE SUB DUP2 ADD SWAP1 PUSH2 0xC1 SWAP2 SWAP1 PUSH2 0x1D5 JUMP JUMPDEST PUSH2 0x12F JUMP JUMPDEST STOP JUMPDEST PUSH1 0x1 PUSH1 0x0 DUP2 DUP2 SWAP1 SLOAD SWAP1 PUSH2 0x100 EXP SWAP1 DIV PUSH1 0xFF AND DUP1 SWAP3 SWAP2 SWAP1 PUSH2 0xE7 SWAP1 PUSH2 0x231 JUMP JUMPDEST SWAP2 SWAP1 PUSH2 0x100 EXP DUP2 SLOAD DUP2 PUSH1 0xFF MUL NOT AND SWAP1 DUP4 PUSH1 0xFF AND MUL OR SWAP1 SSTORE POP POP JUMP JUMPDEST PUSH1 0x1 PUSH1 0x0 SWAP1 SLOAD SWAP1 PUSH2 0x100 EXP SWAP1 DIV PUSH1 0xFF AND DUP2 JUMP JUMPDEST PUSH1 0x0 DUP1 DUP2 SLOAD DUP1 SWAP3 SWAP2 SWAP1 PUSH1 0x1 SWAP1 SUB SWAP2 SWAP1 POP SSTORE POP JUMP JUMPDEST PUSH1 0x0 SLOAD DUP2 JUMP JUMPDEST DUP1 PUSH1 0x0 DUP2 SWAP1 SSTORE POP POP JUMP JUMPDEST PUSH1 0x0 PUSH1 0xFF DUP3 AND SWAP1 POP SWAP2 SWAP1 POP JUMP JUMPDEST PUSH2 0x14F DUP2 PUSH2 0x139 JUMP JUMPDEST DUP3 MSTORE POP POP JUMP JUMPDEST PUSH1 0x0 PUSH1 0x20 DUP3 ADD SWAP1 POP PUSH2 0x16A PUSH1 0x0 DUP4 ADD DUP5 PUSH2 0x146 JUMP JUMPDEST SWAP3 SWAP2 POP POP JUMP JUMPDEST PUSH1 0x0 DUP2 SWAP1 POP SWAP2 SWAP1 POP JUMP JUMPDEST PUSH2 0x183 DUP2 PUSH2 0x170 JUMP JUMPDEST DUP3 MSTORE POP POP JUMP JUMPDEST PUSH1 0x0 PUSH1 0x20 DUP3 ADD SWAP1 POP PUSH2 0x19E PUSH1 0x0 DUP4 ADD DUP5 PUSH2 0x17A JUMP JUMPDEST SWAP3 SWAP2 POP POP JUMP JUMPDEST PUSH1 0x0 DUP1 REVERT JUMPDEST PUSH2 0x1B2 DUP2 PUSH2 0x170 JUMP JUMPDEST DUP2 EQ PUSH2 0x1BD JUMPI PUSH1 0x0 DUP1 REVERT JUMPDEST POP JUMP JUMPDEST PUSH1 0x0 DUP2 CALLDATALOAD SWAP1 POP PUSH2 0x1CF DUP2 PUSH2 0x1A9 JUMP JUMPDEST SWAP3 SWAP2 POP POP JUMP JUMPDEST PUSH1 0x0 PUSH1 0x20 DUP3 DUP5 SUB SLT ISZERO PUSH2 0x1EB JUMPI PUSH2 0x1EA PUSH2 0x1A4 JUMP JUMPDEST JUMPDEST PUSH1 0x0 PUSH2 0x1F9 DUP5 DUP3 DUP6 ADD PUSH2 0x1C0 JUMP JUMPDEST SWAP2 POP POP SWAP3 SWAP2 POP POP JUMP JUMPDEST PUSH32 0x4E487B7100000000000000000000000000000000000000000000000000000000 PUSH1 0x0 MSTORE PUSH1 0x11 PUSH1 0x4 MSTORE PUSH1 0x24 PUSH1 0x0 REVERT JUMPDEST PUSH1 0x0 PUSH2 0x23C DUP3 PUSH2 0x139 JUMP JUMPDEST SWAP2 POP PUSH1 0xFF DUP3 SUB PUSH2 0x24F JUMPI PUSH2 0x24E PUSH2 0x202 JUMP JUMPDEST JUMPDEST PUSH1 0x1 DUP3 ADD SWAP1 POP SWAP2 SWAP1 POP JUMP INVALID LOG2 PUSH5 0x6970667358 0x22 SLT KECCAK256 0x2A 0x4A 0xCF JUMPDEST 0xEB 0xB1 PUSH11 0xF5B05B1B593BFB21AE7AC7 DUP13 SGT 0x1F PUSH2 0x5EB0 BLOCKHASH PUSH17 0x4D86FCEE57CF64736F6C634300080F0033 "
				},
				"gasEstimates": {
					"creation": {
						"codeDepositCost": "131200",
						"executionCost": "177",
						"totalCost": "131377"
					},
					"external": {
						"decrementMyUInt()": "24406",
						"incrementUInt8()": "26677",
						"myUInt()": "2473",
						"myUInt8()": "2471",
						"setMyUInt(uint256)": "22586"
					}
				},
				"methodIdentifiers": {
					"decrementMyUInt()": "6fe6036d",
					"incrementUInt8()": "2ad9db92",
					"myUInt()": "96b57def",
					"myUInt8()": "3c925533",
					"setMyUInt(uint256)": "e7b167fc"
				}
			},
			"storageLayout": {
				"storage": [
					{
						"astId": 3,
						"contract": "contracts/ExampleWrapAround.sol:ExampleWrapAround",
						"label": "myUInt",
						"offset": 0,
						"slot": "0",
						"type": "t_uint256"
					},
					{
						"astId": 5,
						"contract": "contracts/ExampleWrapAround.sol:ExampleWrapAround",
						"label": "myUInt8",
						"offset": 0,
						"slot": "1",
						"type": "t_uint8"
					}
				],
				"types": {
					"t_uint256": {
						"encoding": "inplace",
						"label": "uint256",
						"numberOfBytes": "32"
					},
					"t_uint8": {
						"encoding": "inplace",
						"label": "uint8",
						"numberOfBytes": "1"
					}
				}
			},
			"userdoc": {
				"kind": "user",
				"methods": {},
				"version": 1
			}
		}
	}
}